:0400000007EF00F016
:0A0008005B821FED0AF07EEF0DF0A1
:1010000000537570657253656375726553616665EB
:10101000210053616665206973204C6F636B6564C2
:101020002100496E7075742050617373776F72641C
:101030003A00556E6C6F636B65643B20507265734C
:1010400073005365742050617373776F72643A0054
:1010500052423420746F206C6F636B2100596F759E
:10106000204661696C656421005472792041676192
:10107000696E3A005F5F2D5F5F2D5F5F00007DEC62
:101080000EF0B5EC0DF0E4EC0DF0F7EC0DF063ECC8
:101090000EF01BEC0EF0010E576E000E816E000E6E
:1010A000836E010E576E010E3BEC0EF0010E156EB5
:1010B000010E9BEC0DF0010E176E100E186ED4ECA5
:1010C0000CF0070E146ED00E136ECEEC0DF0020E67
:1010D000576E010E3BEC0EF0010E156E010E9BECEF
:1010E0000DF0420E176E100E186ED4EC0CF0020EBE
:1010F000156E010E9BEC0DF0740E176E100E186E2F
:10110000D4EC0CF0000E596E000E5A6E94EF08F0FD
:10111000C282060EE82EFED700D059C01BF01C6A12
:101120005AC01DF0A6EC0BF0030E5A649AEF08F0BB
:101130009CEF08F088EF08F0000E286E000E276E76
:101140004C0E2724D96E000E2820DA6E490E272473
:10115000E16E000E2820E26EDFCFE7FF274A282A43
:1011600028BEBCEF08F0285009E1030E275CD8A088
:10117000BCEF08F0BEEF08F0A0EF08F0030E576ECA
:101180000AEC0EF058EC0EF05A0E446E0A0E456E44
:101190000B0E466E090E476E000E486ECD80010E96
:1011A0003BEC0EF0010E156E010E9BEC0DF0220EC5
:1011B000176E100E186ED4EC0CF0020E156E010EA8
:1011C0009BEC0DF0740E176E100E186ED4EC0CF034
:1011D000000E566E000E5A6EF4EF08F0C282060E34
:1011E000E82EFED700D0F2885650D8B4FAEF08F0B7
:1011F000FCEF08F0EEEF08F0010E5A6E030E296EB8
:10120000ACEF09F00A0E456E0D0E466E2CEF09F09C
:10121000010E556E0A0E456E0C0E466E2CEF09F04F
:10122000D58E2CEF09F02950226E236A2350000A34
:10123000D8B41DEF09F02CEF09F02250010AD8B400
:1012400002EF09F0030AD8B408EF09F0010AD8B494
:1012500010EF09F02CEF09F0010E5A6E75EF09F04E
:1012600075EC0EF0C282060EE82EFED700D059C0F3
:101270001BF01C6A5AC01DF0A6EC0BF02904D8A480
:1012800044EF09F046EF09F075EF09F06CEC0EF051
:10129000C282060EE82EFED700D05950050DF3CFBE
:1012A00013F0F4CF14F0040E166E000E156E10EC51
:1012B0000CF01350640DF3CF26F0280E266463EF74
:1012C00009F065EF09F069EF09F0000E296E050ECF
:1012D000576E4450D8A46FEF09F071EF09F075EF25
:1012E00009F0000E296E050E576E030E5A647BEF4F
:1012F00009F07DEF09F030EF09F053EC0DF013C069
:1013000024F014C025F024502510D8B48AEF09F039
:101310008CEF09F092EF09F0000E296E040E576E63
:10132000ACEF09F02906010E3BEC0EF0010E156E34
:10133000010E9BEC0DF0690E176E100E186ED4ECBA
:101340000CF0020E156E010E9BEC0DF0740E176E74
:10135000100E186ED4EC0CF02950D8A4B2EF09F09E
:10136000B4EF09F013EF09F0D59E0A0E456E0A0E90
:10137000466E0A0E476E0A0E486E000E556E000E3F
:10138000816E110E936E9D9CF298F296F29A9D904A
:10139000D59ED59E040E5718D8A4D1EF09F0D3EFEF
:1013A00009F0EEEF09F0010E3BEC0EF0010E156EA8
:1013B000010E9BEC0DF0320E176E100E186ED4EC71
:1013C0000CF0020E156E010E9BEC0DF0500E176E18
:1013D000100E186ED4EC0CF0FCEF09F0010E3BEC93
:1013E0000EF0010E156E010E9BEC0DF05D0E176EEA
:1013F000100E186ED4EC0CF09384F2864F505010FF
:10140000D8B405EF0AF007EF0AF0FEEF09F0010E7D
:101410003BEC0EF0010E156E010E9BEC0DF0120E62
:10142000176E100E186ED4EC0CF00B0E146EB80E76
:10143000136ECEEC0DF04DEF08F007EF00F0060054
:10144000D9CF0BF0DACF0CF0F3CF0DF0F4CF0EF0D4
:101450009EAC2DEF0AF02FEF0AF08AEF0AF0C4CF0E
:1014600011F0126A1150126E116AC3501126000E4B
:101470001222FF0E1116030E1216020E5A18D8A4CD
:1014800044EF0AF046EF0AF04EEF0AF01150000860
:10149000116E1250D8A0E82A0408126EE80E115CF2
:1014A000030E1258D8B057EF0AF059EF0AF067EF61
:1014B0000AF011C001F012C002F0000E046E0A0E14
:1014C000036E19EC0DF00150596E69EF0AF0640ECD
:1014D000596E5850D8A46FEF0AF071EF0AF07EEF02
:1014E0000AF0030E5718D8A478EF0AF07AEF0AF042
:1014F0007EEF0AF0010E586E89EF0AF059500F186E
:10150000D8B485EF0AF087EF0AF089EF0AF0010EF0
:10151000566E9E9CF2A28FEF0AF091EF0AF0D6EF82
:101520000AF0BCEF0AF0640E596099EF0AF09BEFE5
:101530000AF0D5EF0AF04B0E5A24D96EDA6A000E83
:10154000DA2259C0DFFF5A2AD5EF0AF05A50D8A440
:10155000ACEF0AF0AEEF0AF0B2EF0AF0010E566EF1
:10156000010E5A6E640E5960B8EF0AF0BAEF0AF035
:10157000D5EF0AF09BEF0AF05750096E0A6A0A503D
:10158000000AD8B4C6EF0AF0D5EF0AF00950010AF4
:10159000D8B4D5EF0AF0030AD8B493EF0AF0010AE1
:1015A000D8B4A6EF0AF0D5EF0AF0F292F2A0DBEF82
:1015B0000AF0DDEF0AF0F6EF0AF0000E106E81502F
:1015C00010121050100BE806D8A4E9EF0AF0EBEF68
:1015D0000AF0F1EF0AF0000E506E010E4F6EF5EFBB
:1015E0000AF0000E506E000E4F6EF290F2A4FBEF68
:1015F0000AF0FDEF0AF03EEF0BF044C001F0026A82
:10160000000E046E0A0E036E72EC0CF00150476E71
:101610004750F60DF3504424486E541E5450D8B42D
:1016200014EF0BF016EF0BF01FEF0BF04450D8B493
:101630001CEF0BF01EEF0BF01FEF0BF044065550A4
:10164000D8B425EF0BF027EF0BF039EF0BF0F29841
:101650005450D8B42EEF0BF030EF0BF034EF0BF00A
:101660009368816838EF0BF0000E816E110E936E57
:10167000F2883FC0D7FF3EC0D6FFF2949EA043EF52
:101680000BF045EF0BF092EF0BF0000E956EC30ED2
:10169000926E000E806E84922A0E4524D96EDA6A0C
:1016A000000EDA22DF50836E8084000E806E2A0ED8
:1016B0004624D96EDA6A000EDA22DF50836E808605
:1016C0000D0E096EFC0EE82EFED7092EFCD7000E7B
:1016D000806E2A0E4724D96EDA6A000EDA22DF50B5
:1016E000836E80880D0E096EFC0EE82EFED7092E43
:1016F000FCD7000E806E2A0E4824D96EDA6A000EDE
:10170000DA22DF50836E808A0D0E096EFC0EE82E01
:10171000FED7092EFCD7000E806E3BC0CFFF3AC02B
:10172000CEFF9E909EA297EF0BF099EF0BF09CEFEF
:101730000BF0514A522A9E920EC0F4FF0DC0F3FFE7
:101740000CC0DAFF0BC0D9FF5B921100000E956E42
:101750001C5009E1640E1B5CD8A0B1EF0BF0B3EF95
:101760000BF0B9EF0BF0580E216E580E206EF6EF0D
:101770000BF01BC013F0146A000E166E0A0E156EE5
:1017800010EC0CF01350216E2150F60DF3501B2479
:10179000206E300E2126300E2026F6EF0BF0020EC2
:1017A000156E010E9BEC0DF021502BEC0EF020502D
:1017B0002BEC0EF00FEF0CF0020E156E040E9BECEE
:1017C0000DF021502BEC0EF020502BEC0EF00FEF13
:1017D0000CF0020E156E070E9BEC0DF021502BEC59
:1017E0000EF020502BEC0EF00FEF0CF01D501E6E83
:1017F0001F6A1F50000AD8B400EF0CF00FEF0CF076
:101800001E50010AD8B4CFEF0BF0030AD8B4DCEFB6
:101810000BF0010AD8B4E9EF0BF00FEF0CF0120057
:10182000000E186E16BE19EF0CF017EF0CF01FEF3C
:101830000CF0156C161ED8B0162A010E186E14BEC8
:1018400026EF0CF024EF0CF02CEF0CF0136C141EB0
:10185000D8B0142A010E181A000E1A6E000E196E56
:1018600015501610D8B437EF0CF039EF0CF061EFCB
:101870000CF0010E176E41EF0CF0D89015361636AD
:10188000172A16AE46EF0CF048EF0CF03DEF0CF0C7
:10189000D89019361A361550135C16501458D8A023
:1018A00054EF0CF056EF0CF05BEF0CF01550135E9C
:1018B0001650145A1980D89016321532172E48EF48
:1018C0000CF01850D8B467EF0CF069EF0CF06DEF26
:1018D0000CF0196C1A1ED8B01A2A19C013F01AC0CD
:1018E00014F01200000E066E04BE7BEF0CF079EFD0
:1018F0000CF081EF0CF0036C041ED8B0042A010E2A
:10190000066E02BE88EF0CF086EF0CF08EEF0CF046
:10191000016C021ED8B0022A010E061A000E086ED3
:10192000000E076E03500410D8B499EF0CF09BEF33
:101930000CF0C3EF0CF0010E056EA3EF0CF0D89085
:1019400003360436052A04AEA8EF0CF0AAEF0CF01B
:101950009FEF0CF0D890073608360350015C045016
:101960000258D8A0B6EF0CF0B8EF0CF0BDEF0CF0B9
:101970000350015E0450025A0780D89004320332AB
:10198000052EAAEF0CF00650D8B4C9EF0CF0CBEF3F
:101990000CF0CFEF0CF0076C081ED8B0082A07C077
:1019A00001F008C002F01200000E1B6E04EF0DF0F3
:1019B0001B501724196E000E18201A6E19C0F6FF5E
:1019C0001AC0F7FF0800F5502BEC0EF0432A110E59
:1019D0004318D8A4EEEF0CF0F0EF0CF003EF0DF08D
:1019E000010E436E422A030E4218D8A4FAEF0CF0FF
:1019F000FCEF0CF0FEEF0CF0010E426E42C015F051
:101A000043509BEC0DF01B2A1B501724196E000E3F
:101A100018201A6E19C0F6FF1AC0F7FF0800F5501B
:101A20000009D8A416EF0DF018EF0DF0D8EF0CF068
:101A30001200000E066E000E056E03500410D8B49E
:101A400024EF0DF026EF0DF04EEF0DF0010E076EB6
:101A50002EEF0DF0D89003360436072A04AE33EF8C
:101A60000DF035EF0DF02AEF0DF0D8900536063663
:101A70000350015C04500258D8A041EF0DF043EF31
:101A80000DF048EF0DF00350015E0450025A05803E
:101A9000D89004320332072E35EF0DF005C001F067
:101AA00006C002F01200000E176E4C0E1724D96EFD
:101AB000DA6A000EDA22490E1724E16EE26A000E9D
:101AC000E222DE50E618D8B468EF0DF06AEF0DF0B0
:101AD00070EF0DF0000E146E000E136E7DEF0DF022
:101AE000172A020E176477EF0DF079EF0DF055EF1E
:101AF0000DF0000E146E010E136E1200940EF66EB1
:101B00001C0EF76E000EF86E00EE2AF010EE1BF0C1
:101B10000900F5CFEEFFE550E150FAE100EE45F0A7
:101B2000160EEE6AE806FDE15B905B92000EF86E21
:101B300000013FEF08F0166E1504D8A4A2EF0DF0D7
:101B4000A4EF0DF0ABEF0DF016040F0B800F3BEC84
:101B50000EF0B0EF0DF016040F0BC00F3BEC0EF0C3
:101B600016C043F015C042F0120096929694000EF3
:101B7000956E84928494380E3BEC0EF0080E3BEC8C
:101B80000EF00C0E3BEC0EF0060E3BEC0EF0010ED0
:101B90003BEC0EF0800E3BEC0EF01200000E526E8D
:101BA000000E516ECA8451C015F052C016F0135089
:101BB000155C14501658D8A0E0EF0DF0E2EF0DF0D0
:101BC000D3EF0DF0CA941200040E926E090EC26E8D
:101BD0000A0EC16EBE0EC06E000EC46E000EC36E45
:101BE000F28EF28CD09E9D8C9F8C9E9C1200010EDA
:101BF000926E010EC26E0E0EC16EBE0EC06E000E53
:101C0000C46E000EC36EF28EF28CD09E9D8C9F8CA3
:101C10009E9C1200000ED56ED59ED59CD59AD59669
:101C2000D590D582D584F28AF28EF28C3FC0D7FF50
:101C30003EC0D6FF12007B0ECA6E280ECB6E000E81
:101C4000CC6E9E92CA949D82F28EF28C000E526EE1
:101C5000000E516E1200146E8492848414C083FFAF
:101C60008482030E136E980EE82EFED7132EFCD737
:101C7000849284941200146E8492849414C083FF1E
:101C80008482030E136E980EE82EFED7132EFCD717
:101C9000849212003F065B4F666D7D077F6F00499F
:0F1CA0004808000050C300003075000001015AD1
:101CB000000ECD6ECD90CD96CD92CD98CD8A9D80E3
:101CC000F28EF28C1200110E936EF19EF180F2886A
:101CD000F296F28EF28C1200FA0E9216040E926EAA
:101CE000090EC26E0A0EC16E1200FA0E9216928092
:101CF000010EC26E0E0EC16E12009B9CD38CD38A55
:041D0000D388120072
:020000040020DA
:08000000FFFFFFFFFFFFFFFF00
:020000040030CA
:0E000000FF081F1EFF8181FF0FC00FE00F40A1
:00000001FF
